8=FIX.4.2|9=80|35=A|34=1|49=EQUITY-TRADER|52=20150824-08:35:31.254|56=NASDAQ|98=0|108=30|141=Y|10=182|